:100000000C942A000C9434000C9434000C943400AA
:100010000C9434000C9434000C9434000C94340090
:100020000C9434000C9434000C9434000C94340080
:100030000C9434000C9434000C9434000C94340070
:100040000C9434000C9434000C9434000C94340060
:100050000C94340011241FBECFE5D4E0DEBFCDBF29
:100060000E9436000C9465000C9400008FEF87BB53
:1000700021E030E090E080E0A901082E01C0440FAB
:100080000A94EAF748BB4FE956E861E04150504016
:100090006040E1F700C0000001968830910561F7EB
:1000A00087E090E0A901082E01C0440F0A94EAF706
:1000B00048BB4FE956E861E0415050406040E1F7ED
:0E00C00000C00000019770F7D5CFF894FFCF75
:00000001FF
